{
  "transactions": [
    {
      "hash": "0x777d146d13e93468cf57dc5e6b08ed5a13f59f83535217b5e05411920a247fbc",
      "transactionType": "CALL",
      "contractName": null,
      "contractAddress": "0xe38ca7be1f5a5d8840c20c40196d18742627027b",
      "function": "mintNft(string)",
      "arguments": [
        "https://ipfs.io/ipfs/QmPAqePphJLrwy8rEJrJrW5ts5p73SgnnBM7Z4or4WNCJb"
      ],
      "transaction": {
        "from": "0x728b281b9c3c761c16549e2bd0d9ae88a0a795cf",
        "to": "0xe38ca7be1f5a5d8840c20c40196d18742627027b",
        "gas": "0x43007",
        "value": "0x0",
        "input": "0xda86f4a90000000000000000000000000000000000000000000000000000000000000020000000000000000000000000000000000000000000000000000000000000004368747470733a2f2f697066732e696f2f697066732f516d504171655070684a4c7277793872454a724a72573574733570373353676e6e424d375a346f7234574e434a620000000000000000000000000000000000000000000000000000000000",
        "nonce": "0x52",
        "chainId": "0xaa36a7"
      },
      "additionalContracts": [],
      "isFixedGasLimit": false
    }
  ],
  "receipts": [
    {
      "status": "0x1",
      "cumulativeGasUsed": "0x1966423",
      "logs": [
        {
          "address": "0xe38ca7be1f5a5d8840c20c40196d18742627027b",
          "topics": [
            "0xddf252ad1be2c89b69c2b068fc378daa952ba7f163c4a11628f55a4df523b3ef",
            "0x0000000000000000000000000000000000000000000000000000000000000000",
            "0x000000000000000000000000728b281b9c3c761c16549e2bd0d9ae88a0a795cf",
            "0x0000000000000000000000000000000000000000000000000000000000000000"
          ],
          "data": "0x",
          "blockHash": "0x2baabac0b8616e9b3053f419b83a5531ac0c59b30cd15e91473b26b937db5041",
          "blockNumber": "0x9da631",
          "blockTimestamp": "0x699e7ffc",
          "transactionHash": "0x777d146d13e93468cf57dc5e6b08ed5a13f59f83535217b5e05411920a247fbc",
          "transactionIndex": "0xa4",
          "logIndex": "0x19d",
          "removed": false
        }
      ],
      "logsBloom": "0x00000000000000000000080000000000004000000000000000000000000000000000000000000000000020000000000000000000000002000000000000000000000000000000000000000008000000000000000000000000000000000000000000000000020000000000000000000800000000000000000000000010000000000000000000000000000000000000000000000000000000000000000000000000000000000000000000000000000000000000000000000000000000010000000000000002000000000000000000000000000000000000000000000004000020000000000000000000000000000000000000000000000000000000000000000000",
      "type": "0x2",
      "transactionHash": "0x777d146d13e93468cf57dc5e6b08ed5a13f59f83535217b5e05411920a247fbc",
      "transactionIndex": "0xa4",
      "blockHash": "0x2baabac0b8616e9b3053f419b83a5531ac0c59b30cd15e91473b26b937db5041",
      "blockNumber": "0x9da631",
      "gasUsed": "0x2dd03",
      "effectiveGasPrice": "0xf4253",
      "from": "0x728b281b9c3c761c16549e2bd0d9ae88a0a795cf",
      "to": "0xe38ca7be1f5a5d8840c20c40196d18742627027b",
      "contractAddress": null
    }
  ],
  "libraries": [],
  "pending": [],
  "returns": {},
  "timestamp": 1771995133397,
  "chain": 11155111,
  "commit": null
}